{
  "contractName": "Auction",
  "abi": [
    {
      "inputs": [],
      "name": "auctionEnded",
      "outputs": [
        {
          "internalType": "bool",
          "name": "",
          "type": "bool"
        }
      ],
      "stateMutability": "view",
      "type": "function"
    },
    {
      "inputs": [
        {
          "internalType": "uint256",
          "name": "",
          "type": "uint256"
        }
      ],
      "name": "bids",
      "outputs": [
        {
          "internalType": "address",
          "name": "bidder",
          "type": "address"
        },
        {
          "internalType": "uint256",
          "name": "amount",
          "type": "uint256"
        }
      ],
      "stateMutability": "view",
      "type": "function"
    },
    {
      "inputs": [],
      "name": "highestBid",
      "outputs": [
        {
          "internalType": "uint256",
          "name": "",
          "type": "uint256"
        }
      ],
      "stateMutability": "view",
      "type": "function"
    },
    {
      "inputs": [],
      "name": "highestBidder",
      "outputs": [
        {
          "internalType": "address",
          "name": "",
          "type": "address"
        }
      ],
      "stateMutability": "view",
      "type": "function"
    },
    {
      "inputs": [],
      "name": "zkProof",
      "outputs": [
        {
          "internalType": "bytes",
          "name": "",
          "type": "bytes"
        }
      ],
      "stateMutability": "view",
      "type": "function"
    },
    {
      "inputs": [
        {
          "internalType": "uint256",
          "name": "amount",
          "type": "uint256"
        }
      ],
      "name": "submitBid",
      "outputs": [],
      "stateMutability": "nonpayable",
      "type": "function"
    },
    {
      "inputs": [
        {
          "internalType": "bytes",
          "name": "proof",
          "type": "bytes"
        }
      ],
      "name": "calculateHighestBid",
      "outputs": [],
      "stateMutability": "nonpayable",
      "type": "function"
    },
    {
      "inputs": [],
      "name": "finalizeAuction",
      "outputs": [
        {
          "internalType": "address",
          "name": "winner",
          "type": "address"
        },
        {
          "internalType": "uint256",
          "name": "highest",
          "type": "uint256"
        },
        {
          "internalType": "bytes",
          "name": "proof",
          "type": "bytes"
        }
      ],
      "stateMutability": "view",
      "type": "function"
    },
    {
      "inputs": [],
      "name": "getNonWinningBids",
      "outputs": [
        {
          "internalType": "uint256[]",
          "name": "",
          "type": "uint256[]"
        }
      ],
      "stateMutability": "view",
      "type": "function"
    }
  ],
  "bytecode": "0x608060405234801561001057600080fd5b506111b6806100206000396000f3fe608060405234801561001057600080fd5b50600436106100935760003560e01c80638643337411610066578063864333741461011f57806391f901571461013d578063d21421461461015b578063d57bde7914610179578063f77282ab1461019757610093565b80632effe7c71461009857806335d8889f146100b65780634423c5f1146100d257806374bdda1514610103575b600080fd5b6100a06101b7565b6040516100ad91906108fd565b60405180910390f35b6100d060048036038101906100cb9190610a79565b610381565b005b6100ec60048036038101906100e79190610aee565b610505565b6040516100fa929190610b6b565b60405180910390f35b61011d60048036038101906101189190610aee565b610559565b005b610127610655565b6040516101349190610baf565b60405180910390f35b610145610668565b6040516101529190610bca565b60405180910390f35b61016361068e565b6040516101709190610c64565b60405180910390f35b61018161071c565b60405161018e9190610c86565b60405180910390f35b61019f610722565b6040516101ae93929190610ca1565b60405180910390f35b6060600360009054906101000a900460ff16610208576040517f08c379a00000000000000000000000000000000000000000000000000000000081526004016101ff90610d3c565b60405180910390fd5b6000600160008054905061021c9190610d8b565b67ffffffffffffffff8111156102355761023461094e565b5b6040519080825280602002602001820160405280156102635781602001602082028036833780820191505090505b5090506000805b60008054905081101561037857600160009054906101000a900473ffffffffffffffffffffffffffffffffffffffff1673ffffffffffffffffffffffffffffffffffffffff16600082815481106102c4576102c3610dbf565b5b906000526020600020906002020160000160009054906101000a900473ffffffffffffffffffffffffffffffffffffffff1673ffffffffffffffffffffffffffffffffffffffff1614610365576000818154811061032557610324610dbf565b5b90600052602060002090600202016001015483838151811061034a57610349610dbf565b5b602002602001018181525050818061036190610dee565b9250505b808061037090610dee565b91505061026a565b50819250505090565b600360009054906101000a900460ff16156103d1576040517f08c379a00000000000000000000000000000000000000000000000000000000081526004016103c890610e82565b60405180910390fd5b60005b6000805490508110156104d657600254600082815481106103f8576103f7610dbf565b5b90600052602060002090600202016001015411156104c3576000818154811061042457610423610dbf565b5b906000526020600020906002020160010154600281905550600081815481106104505761044f610dbf565b5b906000526020600020906002020160000160009054906101000a900473ffffffffffffffffffffffffffffffffffffffff16600160006101000a81548173ffffffffffffffffffffffffffffffffffffffff021916908373ffffffffffffffffffffffffffffffffffffffff1602179055505b80806104ce90610dee565b9150506103d4565b5080600490816104e691906110ae565b506001600360006101000a81548160ff02191690831515021790555050565b6000818154811061051557600080fd5b90600052602060002090600202016000915090508060000160009054906101000a900473ffffffffffffffffffffffffffffffffffffffff16908060010154905082565b600360009054906101000a900460ff16156105a9576040517f08c379a00000000000000000000000000000000000000000000000000000000081526004016105a090610e82565b60405180910390fd5b600060405180604001604052803373ffffffffffffffffffffffffffffffffffffffff16815260200183815250908060018154018082558091505060019003906000526020600020906002020160009091909190915060008201518160000160006101000a81548173ffffffffffffffffffffffffffffffffffffffff021916908373ffffffffffffffffffffffffffffffffffffffff16021790555060208201518160010155505050565b600360009054906101000a900460ff1681565b600160009054906101000a900473ffffffffffffffffffffffffffffffffffffffff1681565b6004805461069b90610ed1565b80601f01602080910402602001604051908101604052809291908181526020018280546106c790610ed1565b80156107145780601f106106e957610100808354040283529160200191610714565b820191906000526020600020905b8154815290600101906020018083116106f757829003601f168201915b505050505081565b60025481565b6000806060600360009054906101000a900460ff16610776576040517f08c379a000000000000000000000000000000000000000000000000000000000815260040161076d90610d3c565b60405180910390fd5b600160009054906101000a900473ffffffffffffffffffffffffffffffffffffffff1660025460048080546107aa90610ed1565b80601f01602080910402602001604051908101604052809291908181526020018280546107d690610ed1565b80156108235780601f106107f857610100808354040283529160200191610823565b820191906000526020600020905b81548152906001019060200180831161080657829003601f168201915b50505050509050925092509250909192565b600081519050919050565b600082825260208201905092915050565b6000819050602082019050919050565b6000819050919050565b61087481610861565b82525050565b6000610886838361086b565b60208301905092915050565b6000602082019050919050565b60006108aa82610835565b6108b48185610840565b93506108bf83610851565b8060005b838110156108f05781516108d7888261087a565b97506108e283610892565b9250506001810190506108c3565b5085935050505092915050565b60006020820190508181036000830152610917818461089f565b905092915050565b6000604051905090565b600080fd5b600080fd5b600080fd5b600080fd5b6000601f19601f8301169050919050565b7f4e487b7100000000000000000000000000000000000000000000000000000000600052604160045260246000fd5b6109868261093d565b810181811067ffffffffffffffff821117156109a5576109a461094e565b5b80604052505050565b60006109b861091f565b90506109c4828261097d565b919050565b600067ffffffffffffffff8211156109e4576109e361094e565b5b6109ed8261093d565b9050602081019050919050565b82818337600083830152505050565b6000610a1c610a17846109c9565b6109ae565b905082815260208101848484011115610a3857610a37610938565b5b610a438482856109fa565b509392505050565b600082601f830112610a6057610a5f610933565b5b8135610a70848260208601610a09565b91505092915050565b600060208284031215610a8f57610a8e610929565b5b600082013567ffffffffffffffff811115610aad57610aac61092e565b5b610ab984828501610a4b565b91505092915050565b610acb81610861565b8114610ad657600080fd5b50565b600081359050610ae881610ac2565b92915050565b600060208284031215610b0457610b03610929565b5b6000610b1284828501610ad9565b91505092915050565b600073ffffffffffffffffffffffffffffffffffffffff82169050919050565b6000610b4682610b1b565b9050919050565b610b5681610b3b565b82525050565b610b6581610861565b82525050565b6000604082019050610b806000830185610b4d565b610b8d6020830184610b5c565b9392505050565b60008115159050919050565b610ba981610b94565b82525050565b6000602082019050610bc46000830184610ba0565b92915050565b6000602082019050610bdf6000830184610b4d565b92915050565b600081519050919050565b600082825260208201905092915050565b60005b83811015610c1f578082015181840152602081019050610c04565b60008484015250505050565b6000610c3682610be5565b610c408185610bf0565b9350610c50818560208601610c01565b610c598161093d565b840191505092915050565b60006020820190508181036000830152610c7e8184610c2b565b905092915050565b6000602082019050610c9b6000830184610b5c565b92915050565b6000606082019050610cb66000830186610b4d565b610cc36020830185610b5c565b8181036040830152610cd58184610c2b565b9050949350505050565b600082825260208201905092915050565b7f41756374696f6e206973206e6f742079657420656e6465642e00000000000000600082015250565b6000610d26601983610cdf565b9150610d3182610cf0565b602082019050919050565b60006020820190508181036000830152610d5581610d19565b9050919050565b7f4e487b7100000000000000000000000000000000000000000000000000000000600052601160045260246000fd5b6000610d9682610861565b9150610da183610861565b9250828203905081811115610db957610db8610d5c565b5b92915050565b7f4e487b7100000000000000000000000000000000000000000000000000000000600052603260045260246000fd5b6000610df982610861565b91507fffffffffffffffffffffffffffffffffffffffffffffffffffffffffffffffff8203610e2b57610e2a610d5c565b5b600182019050919050565b7f41756374696f6e20616c726561647920656e6465642e00000000000000000000600082015250565b6000610e6c601683610cdf565b9150610e7782610e36565b602082019050919050565b60006020820190508181036000830152610e9b81610e5f565b9050919050565b7f4e487b7100000000000000000000000000000000000000000000000000000000600052602260045260246000fd5b60006002820490506001821680610ee957607f821691505b602082108103610efc57610efb610ea2565b5b50919050565b60008190508160005260206000209050919050565b60006020601f8301049050919050565b600082821b905092915050565b600060088302610f647fffffffffffffffffffffffffffffffffffffffffffffffffffffffffffffffff82610f27565b610f6e8683610f27565b95508019841693508086168417925050509392505050565b6000819050919050565b6000610fab610fa6610fa184610861565b610f86565b610861565b9050919050565b6000819050919050565b610fc583610f90565b610fd9610fd182610fb2565b848454610f34565b825550505050565b600090565b610fee610fe1565b610ff9818484610fbc565b505050565b5b8181101561101d57611012600082610fe6565b600181019050610fff565b5050565b601f8211156110625761103381610f02565b61103c84610f17565b8101602085101561104b578190505b61105f61105785610f17565b830182610ffe565b50505b505050565b600082821c905092915050565b600061108560001984600802611067565b1980831691505092915050565b600061109e8383611074565b9150826002028217905092915050565b6110b782610be5565b67ffffffffffffffff8111156110d0576110cf61094e565b5b6110da8254610ed1565b6110e5828285611021565b600060209050601f8311600181146111185760008415611106578287015190505b6111108582611092565b865550611178565b601f19841661112686610f02565b60005b8281101561114e57848901518255600182019150602085019450602081019050611129565b8683101561116b5784890151611167601f891682611074565b8355505b6001600288020188555050505b50505050505056fea2646970667358221220e89fee38b22701ec088864a18892d111520fa3852eb31586cd5cdfcdfaed0eea64736f6c63430008110033",
  "immutableReferences": {},
  "source": "// SPDX-License-Identifier: MIT\r\npragma solidity ^0.8.17;\r\n\r\ncontract Auction {\r\n    struct Bid {\r\n        address bidder;\r\n        uint256 amount;\r\n    }\r\n\r\n    Bid[] public bids;\r\n    address public highestBidder;\r\n    uint256 public highestBid;\r\n    bool public auctionEnded;\r\n    bytes public zkProof;\r\n\r\n    function submitBid(uint256 amount) external {\r\n        require(!auctionEnded, \"Auction already ended.\");\r\n        bids.push(Bid(msg.sender, amount));\r\n    }\r\n\r\n    function calculateHighestBid(bytes memory proof) external {\r\n        require(!auctionEnded, \"Auction already ended.\");\r\n        \r\n        // zkSNARK \r\n        // zk\r\n        \r\n        // \r\n        for (uint i = 0; i < bids.length; i++) {\r\n            if (bids[i].amount > highestBid) {\r\n                highestBid = bids[i].amount;\r\n                highestBidder = bids[i].bidder;\r\n            }\r\n        }\r\n        zkProof = proof; // zk\r\n\r\n        auctionEnded = true;\r\n    }\r\n\r\n    function finalizeAuction() external view returns (address winner, uint256 highest, bytes memory proof) {\r\n        require(auctionEnded, \"Auction is not yet ended.\");\r\n        return (highestBidder, highestBid, zkProof);\r\n    }\r\n\r\n    function getNonWinningBids() external view returns (uint256[] memory) {\r\n        require(auctionEnded, \"Auction is not yet ended.\");\r\n        uint256[] memory nonWinningBids = new uint256[](bids.length - 1);\r\n        uint256 index = 0;\r\n\r\n        for (uint i = 0; i < bids.length; i++) {\r\n            if (bids[i].bidder != highestBidder) {\r\n                nonWinningBids[index] = bids[i].amount;\r\n                index++;\r\n            }\r\n        }\r\n        return nonWinningBids;\r\n    }\r\n}\r\n",
  "sourcePath": "C:\\Users\\asus\\Desktop\\auction-system\\auction-system\\contracts\\Auction.sol",
  "compiler": {
    "name": "solc",
    "version": "0.8.17+commit.8df45f5f.Emscripten.clang"
  },
  "schemaVersion": "3.4.16",
  "updatedAt": "2024-08-15T13:39:25.642Z",
  "devdoc": {
    "kind": "dev",
    "methods": {},
    "version": 1
  },
  "userdoc": {
    "kind": "user",
    "methods": {},
    "version": 1
  }
}